{
  "address": "0x64D3b5Fc66675C34AAf6BBBa66403D6d5C490812",
  "abi": [
    {
      "inputs": [
        {
          "internalType": "string",
          "name": "_name",
          "type": "string"
        },
        {
          "internalType": "string",
          "name": "_symbol",
          "type": "string"
        },
        {
          "internalType": "string",
          "name": "_initBaseURI",
          "type": "string"
        }
      ],
      "stateMutability": "nonpayable",
      "type": "constructor"
    },
    {
      "anonymous": false,
      "inputs": [
        {
          "indexed": true,
          "internalType": "address",
          "name": "owner",
          "type": "address"
        },
        {
          "indexed": true,
          "internalType": "address",
          "name": "approved",
          "type": "address"
        },
        {
          "indexed": true,
          "internalType": "uint256",
          "name": "tokenId",
          "type": "uint256"
        }
      ],
      "name": "Approval",
      "type": "event"
    },
    {
      "anonymous": false,
      "inputs": [
        {
          "indexed": true,
          "internalType": "address",
          "name": "owner",
          "type": "address"
        },
        {
          "indexed": true,
          "internalType": "address",
          "name": "operator",
          "type": "address"
        },
        {
          "indexed": false,
          "internalType": "bool",
          "name": "approved",
          "type": "bool"
        }
      ],
      "name": "ApprovalForAll",
      "type": "event"
    },
    {
      "anonymous": false,
      "inputs": [
        {
          "indexed": true,
          "internalType": "address",
          "name": "previousOwner",
          "type": "address"
        },
        {
          "indexed": true,
          "internalType": "address",
          "name": "newOwner",
          "type": "address"
        }
      ],
      "name": "OwnershipTransferred",
      "type": "event"
    },
    {
      "anonymous": false,
      "inputs": [
        {
          "indexed": true,
          "internalType": "address",
          "name": "from",
          "type": "address"
        },
        {
          "indexed": true,
          "internalType": "address",
          "name": "to",
          "type": "address"
        },
        {
          "indexed": true,
          "internalType": "uint256",
          "name": "tokenId",
          "type": "uint256"
        }
      ],
      "name": "Transfer",
      "type": "event"
    },
    {
      "inputs": [],
      "name": "INITIAL_PRICE",
      "outputs": [
        {
          "internalType": "uint256",
          "name": "",
          "type": "uint256"
        }
      ],
      "stateMutability": "view",
      "type": "function"
    },
    {
      "inputs": [
        {
          "internalType": "address",
          "name": "",
          "type": "address"
        }
      ],
      "name": "addressMintedBalance",
      "outputs": [
        {
          "internalType": "uint256",
          "name": "",
          "type": "uint256"
        }
      ],
      "stateMutability": "view",
      "type": "function"
    },
    {
      "inputs": [
        {
          "internalType": "address",
          "name": "to",
          "type": "address"
        },
        {
          "internalType": "uint256",
          "name": "tokenId",
          "type": "uint256"
        }
      ],
      "name": "approve",
      "outputs": [],
      "stateMutability": "nonpayable",
      "type": "function"
    },
    {
      "inputs": [
        {
          "internalType": "address",
          "name": "owner",
          "type": "address"
        }
      ],
      "name": "balanceOf",
      "outputs": [
        {
          "internalType": "uint256",
          "name": "",
          "type": "uint256"
        }
      ],
      "stateMutability": "view",
      "type": "function"
    },
    {
      "inputs": [],
      "name": "baseExtension",
      "outputs": [
        {
          "internalType": "string",
          "name": "",
          "type": "string"
        }
      ],
      "stateMutability": "view",
      "type": "function"
    },
    {
      "inputs": [],
      "name": "baseURI",
      "outputs": [
        {
          "internalType": "string",
          "name": "",
          "type": "string"
        }
      ],
      "stateMutability": "view",
      "type": "function"
    },
    {
      "inputs": [
        {
          "internalType": "uint256",
          "name": "tokenId",
          "type": "uint256"
        }
      ],
      "name": "getApproved",
      "outputs": [
        {
          "internalType": "address",
          "name": "",
          "type": "address"
        }
      ],
      "stateMutability": "view",
      "type": "function"
    },
    {
      "inputs": [
        {
          "internalType": "address",
          "name": "owner",
          "type": "address"
        },
        {
          "internalType": "address",
          "name": "operator",
          "type": "address"
        }
      ],
      "name": "isApprovedForAll",
      "outputs": [
        {
          "internalType": "bool",
          "name": "",
          "type": "bool"
        }
      ],
      "stateMutability": "view",
      "type": "function"
    },
    {
      "inputs": [
        {
          "internalType": "address",
          "name": "_user",
          "type": "address"
        }
      ],
      "name": "isWhitelisted",
      "outputs": [
        {
          "internalType": "bool",
          "name": "",
          "type": "bool"
        }
      ],
      "stateMutability": "view",
      "type": "function"
    },
    {
      "inputs": [],
      "name": "maxMintAmount",
      "outputs": [
        {
          "internalType": "uint256",
          "name": "",
          "type": "uint256"
        }
      ],
      "stateMutability": "view",
      "type": "function"
    },
    {
      "inputs": [],
      "name": "maxSupply",
      "outputs": [
        {
          "internalType": "uint256",
          "name": "",
          "type": "uint256"
        }
      ],
      "stateMutability": "view",
      "type": "function"
    },
    {
      "inputs": [
        {
          "internalType": "uint256",
          "name": "_mintAmount",
          "type": "uint256"
        }
      ],
      "name": "mint",
      "outputs": [],
      "stateMutability": "payable",
      "type": "function"
    },
    {
      "inputs": [],
      "name": "name",
      "outputs": [
        {
          "internalType": "string",
          "name": "",
          "type": "string"
        }
      ],
      "stateMutability": "view",
      "type": "function"
    },
    {
      "inputs": [],
      "name": "nftPerAddressLimit",
      "outputs": [
        {
          "internalType": "uint256",
          "name": "",
          "type": "uint256"
        }
      ],
      "stateMutability": "view",
      "type": "function"
    },
    {
      "inputs": [],
      "name": "onlyWhitelisted",
      "outputs": [
        {
          "internalType": "bool",
          "name": "",
          "type": "bool"
        }
      ],
      "stateMutability": "view",
      "type": "function"
    },
    {
      "inputs": [],
      "name": "owner",
      "outputs": [
        {
          "internalType": "address",
          "name": "",
          "type": "address"
        }
      ],
      "stateMutability": "view",
      "type": "function"
    },
    {
      "inputs": [
        {
          "internalType": "uint256",
          "name": "tokenId",
          "type": "uint256"
        }
      ],
      "name": "ownerOf",
      "outputs": [
        {
          "internalType": "address",
          "name": "",
          "type": "address"
        }
      ],
      "stateMutability": "view",
      "type": "function"
    },
    {
      "inputs": [
        {
          "internalType": "bool",
          "name": "_state",
          "type": "bool"
        }
      ],
      "name": "pause",
      "outputs": [],
      "stateMutability": "nonpayable",
      "type": "function"
    },
    {
      "inputs": [],
      "name": "paused",
      "outputs": [
        {
          "internalType": "bool",
          "name": "",
          "type": "bool"
        }
      ],
      "stateMutability": "view",
      "type": "function"
    },
    {
      "inputs": [],
      "name": "renounceOwnership",
      "outputs": [],
      "stateMutability": "nonpayable",
      "type": "function"
    },
    {
      "inputs": [],
      "name": "reveal",
      "outputs": [],
      "stateMutability": "nonpayable",
      "type": "function"
    },
    {
      "inputs": [],
      "name": "revealed",
      "outputs": [
        {
          "internalType": "bool",
          "name": "",
          "type": "bool"
        }
      ],
      "stateMutability": "view",
      "type": "function"
    },
    {
      "inputs": [
        {
          "internalType": "address",
          "name": "from",
          "type": "address"
        },
        {
          "internalType": "address",
          "name": "to",
          "type": "address"
        },
        {
          "internalType": "uint256",
          "name": "tokenId",
          "type": "uint256"
        }
      ],
      "name": "safeTransferFrom",
      "outputs": [],
      "stateMutability": "nonpayable",
      "type": "function"
    },
    {
      "inputs": [
        {
          "internalType": "address",
          "name": "from",
          "type": "address"
        },
        {
          "internalType": "address",
          "name": "to",
          "type": "address"
        },
        {
          "internalType": "uint256",
          "name": "tokenId",
          "type": "uint256"
        },
        {
          "internalType": "bytes",
          "name": "data",
          "type": "bytes"
        }
      ],
      "name": "safeTransferFrom",
      "outputs": [],
      "stateMutability": "nonpayable",
      "type": "function"
    },
    {
      "inputs": [
        {
          "internalType": "address",
          "name": "operator",
          "type": "address"
        },
        {
          "internalType": "bool",
          "name": "approved",
          "type": "bool"
        }
      ],
      "name": "setApprovalForAll",
      "outputs": [],
      "stateMutability": "nonpayable",
      "type": "function"
    },
    {
      "inputs": [
        {
          "internalType": "string",
          "name": "_newBaseExtension",
          "type": "string"
        }
      ],
      "name": "setBaseExtension",
      "outputs": [],
      "stateMutability": "nonpayable",
      "type": "function"
    },
    {
      "inputs": [
        {
          "internalType": "string",
          "name": "_newBaseURI",
          "type": "string"
        }
      ],
      "name": "setBaseURI",
      "outputs": [],
      "stateMutability": "nonpayable",
      "type": "function"
    },
    {
      "inputs": [
        {
          "internalType": "uint256",
          "name": "_newINITIAL_PRICE",
          "type": "uint256"
        }
      ],
      "name": "setINITIAL_PRICE",
      "outputs": [],
      "stateMutability": "nonpayable",
      "type": "function"
    },
    {
      "inputs": [
        {
          "internalType": "uint256",
          "name": "_limit",
          "type": "uint256"
        }
      ],
      "name": "setNftPerAddressLimit",
      "outputs": [],
      "stateMutability": "nonpayable",
      "type": "function"
    },
    {
      "inputs": [
        {
          "internalType": "bool",
          "name": "_state",
          "type": "bool"
        }
      ],
      "name": "setOnlyWhitelisted",
      "outputs": [],
      "stateMutability": "nonpayable",
      "type": "function"
    },
    {
      "inputs": [
        {
          "internalType": "uint256",
          "name": "_newmaxMintAmount",
          "type": "uint256"
        }
      ],
      "name": "setmaxMintAmount",
      "outputs": [],
      "stateMutability": "nonpayable",
      "type": "function"
    },
    {
      "inputs": [
        {
          "internalType": "bytes4",
          "name": "interfaceId",
          "type": "bytes4"
        }
      ],
      "name": "supportsInterface",
      "outputs": [
        {
          "internalType": "bool",
          "name": "",
          "type": "bool"
        }
      ],
      "stateMutability": "view",
      "type": "function"
    },
    {
      "inputs": [],
      "name": "symbol",
      "outputs": [
        {
          "internalType": "string",
          "name": "",
          "type": "string"
        }
      ],
      "stateMutability": "view",
      "type": "function"
    },
    {
      "inputs": [
        {
          "internalType": "uint256",
          "name": "index",
          "type": "uint256"
        }
      ],
      "name": "tokenByIndex",
      "outputs": [
        {
          "internalType": "uint256",
          "name": "",
          "type": "uint256"
        }
      ],
      "stateMutability": "view",
      "type": "function"
    },
    {
      "inputs": [
        {
          "internalType": "address",
          "name": "owner",
          "type": "address"
        },
        {
          "internalType": "uint256",
          "name": "index",
          "type": "uint256"
        }
      ],
      "name": "tokenOfOwnerByIndex",
      "outputs": [
        {
          "internalType": "uint256",
          "name": "",
          "type": "uint256"
        }
      ],
      "stateMutability": "view",
      "type": "function"
    },
    {
      "inputs": [
        {
          "internalType": "uint256",
          "name": "tokenId",
          "type": "uint256"
        }
      ],
      "name": "tokenURI",
      "outputs": [
        {
          "internalType": "string",
          "name": "",
          "type": "string"
        }
      ],
      "stateMutability": "view",
      "type": "function"
    },
    {
      "inputs": [],
      "name": "totalSupply",
      "outputs": [
        {
          "internalType": "uint256",
          "name": "",
          "type": "uint256"
        }
      ],
      "stateMutability": "view",
      "type": "function"
    },
    {
      "inputs": [
        {
          "internalType": "address",
          "name": "from",
          "type": "address"
        },
        {
          "internalType": "address",
          "name": "to",
          "type": "address"
        },
        {
          "internalType": "uint256",
          "name": "tokenId",
          "type": "uint256"
        }
      ],
      "name": "transferFrom",
      "outputs": [],
      "stateMutability": "nonpayable",
      "type": "function"
    },
    {
      "inputs": [
        {
          "internalType": "address",
          "name": "newOwner",
          "type": "address"
        }
      ],
      "name": "transferOwnership",
      "outputs": [],
      "stateMutability": "nonpayable",
      "type": "function"
    },
    {
      "inputs": [
        {
          "internalType": "address",
          "name": "_owner",
          "type": "address"
        }
      ],
      "name": "walletOfOwner",
      "outputs": [
        {
          "internalType": "uint256[]",
          "name": "",
          "type": "uint256[]"
        }
      ],
      "stateMutability": "view",
      "type": "function"
    },
    {
      "inputs": [
        {
          "internalType": "address[]",
          "name": "_users",
          "type": "address[]"
        }
      ],
      "name": "whitelistUsers",
      "outputs": [],
      "stateMutability": "nonpayable",
      "type": "function"
    },
    {
      "inputs": [
        {
          "internalType": "uint256",
          "name": "",
          "type": "uint256"
        }
      ],
      "name": "whitelistedAddresses",
      "outputs": [
        {
          "internalType": "address",
          "name": "",
          "type": "address"
        }
      ],
      "stateMutability": "view",
      "type": "function"
    },
    {
      "inputs": [],
      "name": "withdraw",
      "outputs": [],
      "stateMutability": "payable",
      "type": "function"
    }
  ],
  "transactionHash": "0x31640c728895320731094e9747c75de4f31b399da49c5c6c367f37adb9464569",
  "args": [
    "web3BoyNft",
    "WEB3BOY",
    "ipfs://QmSFafqKSKdDpLtjmNHikDb8Xfqvr2Jh1jibwLPQDFQz5e/"
  ],
  "numDeployments": 5,
  "solcInputHash": "36bbe7b4435c6bbc68531831374075a5",
  "bytecode": "0x60806040526040518060400160405280600581526020017f2e6a736f6e000000000000000000000000000000000000000000000000000000815250600c908051906020019062000051929190620003d4565b50662386f26fc10000600d55600a600e556005600f5560056010556000601160006101000a81548160ff0219169083151502179055506000601160016101000a81548160ff0219169083151502179055506000601160026101000a81548160ff021916908315150217905550731bd4c1c017c92669ad62ae33a43f50d7f3a71da7601160036101000a81548173ffffffffffffffffffffffffffffffffffffffff021916908373ffffffffffffffffffffffffffffffffffffffff1602179055503480156200011f57600080fd5b50604051620053a4380380620053a4833981810160405281019062000145919062000502565b6040518060400160405280600a81526020017f77656233426f794e6674000000000000000000000000000000000000000000008152506040518060400160405280600781526020017f57454233424f59000000000000000000000000000000000000000000000000008152508160009080519060200190620001c9929190620003d4565b508060019080519060200190620001e2929190620003d4565b50505062000205620001f96200021f60201b60201c565b6200022760201b60201c565b6200021681620002ed60201b60201c565b505050620007c2565b600033905090565b6000600a60009054906101000a900473ffffffffffffffffffffffffffffffffffffffff16905081600a60006101000a81548173ffffffffffffffffffffffffffffffffffffffff021916908373ffffffffffffffffffffffffffffffffffffffff1602179055508173ffffffffffffffffffffffffffffffffffffffff168173ffffffffffffffffffffffffffffffffffffffff167f8be0079c531659141344cd1fd0a4f28419497f9722a3daafe3b4186f6b6457e060405160405180910390a35050565b620002fd6200031960201b60201c565b80600b908051906020019062000315929190620003d4565b5050565b620003296200021f60201b60201c565b73ffffffffffffffffffffffffffffffffffffffff166200034f620003aa60201b60201c565b73ffffffffffffffffffffffffffffffffffffffff1614620003a8576040517f08c379a00000000000000000000000000000000000000000000000000000000081526004016200039f90620005e2565b60405180910390fd5b565b6000600a60009054906101000a900473ffffffffffffffffffffffffffffffffffffffff16905090565b828054620003e290620006aa565b90600052602060002090601f01602090048101928262000406576000855562000452565b82601f106200042157805160ff191683800117855562000452565b8280016001018555821562000452579182015b828111156200045157825182559160200191906001019062000434565b5b50905062000461919062000465565b5090565b5b808211156200048057600081600090555060010162000466565b5090565b60006200049b62000495846200062d565b62000604565b905082815260208101848484011115620004ba57620004b962000779565b5b620004c784828562000674565b509392505050565b600082601f830112620004e757620004e662000774565b5b8151620004f984826020860162000484565b91505092915050565b6000806000606084860312156200051e576200051d62000783565b5b600084015167ffffffffffffffff8111156200053f576200053e6200077e565b5b6200054d86828701620004cf565b935050602084015167ffffffffffffffff8111156200057157620005706200077e565b5b6200057f86828701620004cf565b925050604084015167ffffffffffffffff811115620005a357620005a26200077e565b5b620005b186828701620004cf565b9150509250925092565b6000620005ca60208362000663565b9150620005d78262000799565b602082019050919050565b60006020820190508181036000830152620005fd81620005bb565b9050919050565b60006200061062000623565b90506200061e8282620006e0565b919050565b6000604051905090565b600067ffffffffffffffff8211156200064b576200064a62000745565b5b620006568262000788565b9050602081019050919050565b600082825260208201905092915050565b60005b838110156200069457808201518184015260208101905062000677565b83811115620006a4576000848401525b50505050565b60006002820490506001821680620006c357607f821691505b60208210811415620006da57620006d962000716565b5b50919050565b620006eb8262000788565b810181811067ffffffffffffffff821117156200070d576200070c62000745565b5b80604052505050565b7f4e487b7100000000000000000000000000000000000000000000000000000000600052602260045260246000fd5b7f4e487b7100000000000000000000000000000000000000000000000000000000600052604160045260246000fd5b600080fd5b600080fd5b600080fd5b600080fd5b6000601f19601f8301169050919050565b7f4f776e61626c653a2063616c6c6572206973206e6f7420746865206f776e6572600082015250565b614bd280620007d26000396000f3fe60806040526004361061025c5760003560e01c80636c0360eb11610144578063b88d4fde116100b6578063d0eb26b01161007a578063d0eb26b0146108f2578063d5abeb011461091b578063da3ef23f14610946578063e985e9c51461096f578063edec5f27146109ac578063f2fde38b146109d55761025c565b8063b88d4fde146107f9578063ba4e5c4914610822578063ba7d2c761461085f578063c66828621461088a578063c87b56dd146108b55761025c565b80638da5cb5b116101085780638da5cb5b1461071c57806395d89b41146107475780639c70b51214610772578063a0712d681461079d578063a22cb465146107b9578063a475b5dd146107e25761025c565b80636c0360eb1461064957806370a0823114610674578063715018a6146106b15780637c5e2795146106c85780637f00c7a6146106f35761025c565b80632f745c59116101dd578063438b6300116101a1578063438b6300146105135780634f6ccce714610550578063518302271461058d57806355f804b3146105b85780635c975abb146105e15780636352211e1461060c5761025c565b80632f745c591461043d5780633af32abf1461047a5780633c952764146104b75780633ccfd60b146104e057806342842e0e146104ea5761025c565b80631793332611610224578063179333261461035857806318160ddd1461038157806318cae269146103ac578063239c70ae146103e957806323b872dd146104145761025c565b806301ffc9a71461026157806302329a291461029e57806306fdde03146102c7578063081812fc146102f2578063095ea7b31461032f575b600080fd5b34801561026d57600080fd5b506102886004803603810190610283919061365e565b6109fe565b6040516102959190613d3c565b60405180910390f35b3480156102aa57600080fd5b506102c560048036038101906102c09190613631565b610a78565b005b3480156102d357600080fd5b506102dc610a9d565b6040516102e99190613d57565b60405180910390f35b3480156102fe57600080fd5b5061031960048036038101906103149190613701565b610b2f565b6040516103269190613cb3565b60405180910390f35b34801561033b57600080fd5b50610356600480360381019061035191906135a4565b610b75565b005b34801561036457600080fd5b5061037f600480360381019061037a9190613701565b610c8d565b005b34801561038d57600080fd5b50610396610c9f565b6040516103a39190614079565b60405180910390f35b3480156103b857600080fd5b506103d360048036038101906103ce9190613421565b610cac565b6040516103e09190614079565b60405180910390f35b3480156103f557600080fd5b506103fe610cc4565b60405161040b9190614079565b60405180910390f35b34801561042057600080fd5b5061043b6004803603810190610436919061348e565b610cca565b005b34801561044957600080fd5b50610464600480360381019061045f91906135a4565b610d2a565b6040516104719190614079565b60405180910390f35b34801561048657600080fd5b506104a1600480360381019061049c9190613421565b610dcf565b6040516104ae9190613d3c565b60405180910390f35b3480156104c357600080fd5b506104de60048036038101906104d99190613631565b610e7e565b005b6104e8610ea3565b005b3480156104f657600080fd5b50610511600480360381019061050c919061348e565b610f2b565b005b34801561051f57600080fd5b5061053a60048036038101906105359190613421565b610f4b565b6040516105479190613d1a565b60405180910390f35b34801561055c57600080fd5b5061057760048036038101906105729190613701565b610ff9565b6040516105849190614079565b60405180910390f35b34801561059957600080fd5b506105a261106a565b6040516105af9190613d3c565b60405180910390f35b3480156105c457600080fd5b506105df60048036038101906105da91906136b8565b61107d565b005b3480156105ed57600080fd5b506105f661109f565b6040516106039190613d3c565b60405180910390f35b34801561061857600080fd5b50610633600480360381019061062e9190613701565b6110b2565b6040516106409190613cb3565b60405180910390f35b34801561065557600080fd5b5061065e611139565b60405161066b9190613d57565b60405180910390f35b34801561068057600080fd5b5061069b60048036038101906106969190613421565b6111c7565b6040516106a89190614079565b60405180910390f35b3480156106bd57600080fd5b506106c661127f565b005b3480156106d457600080fd5b506106dd611293565b6040516106ea9190614079565b60405180910390f35b3480156106ff57600080fd5b5061071a60048036038101906107159190613701565b611299565b005b34801561072857600080fd5b506107316112ab565b60405161073e9190613cb3565b60405180910390f35b34801561075357600080fd5b5061075c6112d5565b6040516107699190613d57565b60405180910390f35b34801561077e57600080fd5b50610787611367565b6040516107949190613d3c565b60405180910390f35b6107b760048036038101906107b29190613701565b61137a565b005b3480156107c557600080fd5b506107e060048036038101906107db9190613564565b611774565b005b3480156107ee57600080fd5b506107f761178a565b005b34801561080557600080fd5b50610820600480360381019061081b91906134e1565b6117af565b005b34801561082e57600080fd5b5061084960048036038101906108449190613701565b611811565b6040516108569190613cb3565b60405180910390f35b34801561086b57600080fd5b50610874611850565b6040516108819190614079565b60405180910390f35b34801561089657600080fd5b5061089f611856565b6040516108ac9190613d57565b60405180910390f35b3480156108c157600080fd5b506108dc60048036038101906108d79190613701565b6118e4565b6040516108e99190613d57565b60405180910390f35b3480156108fe57600080fd5b5061091960048036038101906109149190613701565b61198e565b005b34801561092757600080fd5b506109306119a0565b60405161093d9190614079565b60405180910390f35b34801561095257600080fd5b5061096d600480360381019061096891906136b8565b6119a6565b005b34801561097b57600080fd5b506109966004803603810190610991919061344e565b6119c8565b6040516109a39190613d3c565b60405180910390f35b3480156109b857600080fd5b506109d360048036038101906109ce91906135e4565b611a5c565b005b3480156109e157600080fd5b506109fc60048036038101906109f79190613421565b611a88565b005b60007f780e9d63000000000000000000000000000000000000000000000000000000007bffffffffffffffffffffffffffffffffffffffffffffffffffffffff1916827bffffffffffffffffffffffffffffffffffffffffffffffffffffffff19161480610a715750610a7082611b0c565b5b9050919050565b610a80611bee565b80601160006101000a81548160ff02191690831515021790555050565b606060008054610aac90614382565b80601f0160208091040260200160405190810160405280929190818152602001828054610ad890614382565b8015610b255780601f10610afa57610100808354040283529160200191610b25565b820191906000526020600020905b815481529060010190602001808311610b0857829003601f168201915b5050505050905090565b6000610b3a82611c6c565b6004600083815260200190815260200160002060009054906101000a900473ffffffffffffffffffffffffffffffffffffffff169050919050565b6000610b80826110b2565b90508073ffffffffffffffffffffffffffffffffffffffff168373ffffffffffffffffffffffffffffffffffffffff161415610bf1576040517f08c379a0000000000000000000000000000000000000000000000000000000008152600401610be890613f99565b60405180910390fd5b8073ffffffffffffffffffffffffffffffffffffffff16610c10611cb7565b73ffffffffffffffffffffffffffffffffffffffff161480610c3f5750610c3e81610c39611cb7565b6119c8565b5b610c7e576040517f08c379a0000000000000000000000000000000000000000000000000000000008152600401610c7590613fd9565b60405180910390fd5b610c888383611cbf565b505050565b610c95611bee565b80600d8190555050565b6000600880549050905090565b60136020528060005260406000206000915090505481565b600f5481565b610cdb610cd5611cb7565b82611d78565b610d1a576040517f08c379a0000000000000000000000000000000000000000000000000000000008152600401610d1190613d79565b60405180910390fd5b610d25838383611e0d565b505050565b6000610d35836111c7565b8210610d76576040517f08c379a0000000000000000000000000000000000000000000000000000000008152600401610d6d90613d99565b60405180910390fd5b600660008473ffffffffffffffffffffffffffffffffffffffff1673ffffffffffffffffffffffffffffffffffffffff168152602001908152602001600020600083815260200190815260200160002054905092915050565b600080600090505b601280549050811015610e73578273ffffffffffffffffffffffffffffffffffffffff1660128281548110610e0f57610e0e6144ea565b5b9060005260206000200160009054906101000a900473ffffffffffffffffffffffffffffffffffffffff1673ffffffffffffffffffffffffffffffffffffffff161415610e60576001915050610e79565b8080610e6b906143e5565b915050610dd7565b50600090505b919050565b610e86611bee565b80601160026101000a81548160ff02191690831515021790555050565b610eab611bee565b6000610eb56112ab565b73ffffffffffffffffffffffffffffffffffffffff1647604051610ed890613c9e565b60006040518083038185875af1925050503d8060008114610f15576040519150601f19603f3d011682016040523d82523d6000602084013e610f1a565b606091505b5050905080610f2857600080fd5b50565b610f46838383604051806020016040528060008152506117af565b505050565b60606000610f58836111c7565b905060008167ffffffffffffffff811115610f7657610f75614519565b5b604051908082528060200260200182016040528015610fa45781602001602082028036833780820191505090505b50905060005b82811015610fee57610fbc8582610d2a565b828281518110610fcf57610fce6144ea565b5b6020026020010181815250508080610fe6906143e5565b915050610faa565b508092505050919050565b6000611003610c9f565b8210611044576040517f08c379a000000000000000000000000000000000000000000000000000000000815260040161103b90613ff9565b60405180910390fd5b60088281548110611058576110576144ea565b5b90600052602060002001549050919050565b601160019054906101000a900460ff1681565b611085611bee565b80600b908051906020019061109b92919061311e565b5050565b601160009054906101000a900460ff1681565b6000806110be83612107565b9050600073ffffffffffffffffffffffffffffffffffffffff168173ffffffffffffffffffffffffffffffffffffffff161415611130576040517f08c379a000000000000000000000000000000000000000000000000000000000815260040161112790613f79565b60405180910390fd5b80915050919050565b600b805461114690614382565b80601f016020809104026020016040519081016040528092919081815260200182805461117290614382565b80156111bf5780601f10611194576101008083540402835291602001916111bf565b820191906000526020600020905b8154815290600101906020018083116111a257829003601f168201915b505050505081565b60008073ffffffffffffffffffffffffffffffffffffffff168273ffffffffffffffffffffffffffffffffffffffff161415611238576040517f08c379a000000000000000000000000000000000000000000000000000000000815260040161122f90613e99565b60405180910390fd5b600360008373ffffffffffffffffffffffffffffffffffffffff1673ffffffffffffffffffffffffffffffffffffffff168152602001908152602001600020549050919050565b611287611bee565b6112916000612144565b565b600d5481565b6112a1611bee565b80600f8190555050565b6000600a60009054906101000a900473ffffffffffffffffffffffffffffffffffffffff16905090565b6060600180546112e490614382565b80601f016020809104026020016040519081016040528092919081815260200182805461131090614382565b801561135d5780601f106113325761010080835404028352916020019161135d565b820191906000526020600020905b81548152906001019060200180831161134057829003601f168201915b5050505050905090565b601160029054906101000a900460ff1681565b601160009054906101000a900460ff16156113ca576040517f08c379a00000000000000000000000000000000000000000000000000000000081526004016113c190613f39565b60405180910390fd5b60006113d4610c9f565b905060008211611419576040517f08c379a000000000000000000000000000000000000000000000000000000000815260040161141090614059565b60405180910390fd5b600f5482111561145e576040517f08c379a000000000000000000000000000000000000000000000000000000000815260040161145590613ed9565b60405180910390fd5b600e54828261146d91906141b7565b11156114ae576040517f08c379a00000000000000000000000000000000000000000000000000000000081526004016114a590613eb9565b60405180910390fd5b6114b66112ab565b73ffffffffffffffffffffffffffffffffffffffff163373ffffffffffffffffffffffffffffffffffffffff16146116335760011515601160029054906101000a900460ff16151514156115e25761150d33610dcf565b61154c576040517f08c379a000000000000000000000000000000000000000000000000000000000815260040161154390614039565b60405180910390fd5b6000601360003373ffffffffffffffffffffffffffffffffffffffff1673ffffffffffffffffffffffffffffffffffffffff168152602001908152602001600020549050601054838261159f91906141b7565b11156115e0576040517f08c379a00000000000000000000000000000000000000000000000000000000081526004016115d790613e39565b60405180910390fd5b505b81600d546115f0919061423e565b341015611632576040517f08c379a000000000000000000000000000000000000000000000000000000000815260040161162990613fb9565b60405180910390fd5b5b6000600190505b8281116116be57601360003373ffffffffffffffffffffffffffffffffffffffff1673ffffffffffffffffffffffffffffffffffffffff1681526020019081526020016000206000815480929190611691906143e5565b91905055506116ab3382846116a691906141b7565b61220a565b80806116b6906143e5565b91505061163a565b506000601160039054906101000a900473ffffffffffffffffffffffffffffffffffffffff1673ffffffffffffffffffffffffffffffffffffffff166064600634611709919061423e565b611713919061420d565b60405161171f90613c9e565b60006040518083038185875af1925050503d806000811461175c576040519150601f19603f3d011682016040523d82523d6000602084013e611761565b606091505b505090508061176f57600080fd5b505050565b61178661177f611cb7565b8383612228565b5050565b611792611bee565b6001601160016101000a81548160ff021916908315150217905550565b6117c06117ba611cb7565b83611d78565b6117ff576040517f08c379a00000000000000000000000000000000000000000000000000000000081526004016117f690613d79565b60405180910390fd5b61180b84848484612395565b50505050565b6012818154811061182157600080fd5b906000526020600020016000915054906101000a900473ffffffffffffffffffffffffffffffffffffffff1681565b60105481565b600c805461186390614382565b80601f016020809104026020016040519081016040528092919081815260200182805461188f90614382565b80156118dc5780601f106118b1576101008083540402835291602001916118dc565b820191906000526020600020905b8154815290600101906020018083116118bf57829003601f168201915b505050505081565b60606118ef826123f1565b61192e576040517f08c379a000000000000000000000000000000000000000000000000000000000815260040161192590613f59565b60405180910390fd5b6000611938612432565b905060008151116119585760405180602001604052806000815250611986565b80611962846124c4565b600c60405160200161197693929190613c6d565b6040516020818303038152906040525b915050919050565b611996611bee565b8060108190555050565b600e5481565b6119ae611bee565b80600c90805190602001906119c492919061311e565b5050565b6000600560008473ffffffffffffffffffffffffffffffffffffffff1673ffffffffffffffffffffffffffffffffffffffff16815260200190815260200160002060008373ffffffffffffffffffffffffffffffffffffffff1673ffffffffffffffffffffffffffffffffffffffff16815260200190815260200160002060009054906101000a900460ff16905092915050565b611a64611bee565b60126000611a7291906131a4565b818160129190611a839291906131c5565b505050565b611a90611bee565b600073ffffffffffffffffffffffffffffffffffffffff168173ffffffffffffffffffffffffffffffffffffffff161415611b00576040517f08c379a0000000000000000000000000000000000000000000000000000000008152600401611af790613dd9565b60405180910390fd5b611b0981612144565b50565b60007f80ac58cd000000000000000000000000000000000000000000000000000000007bffffffffffffffffffffffffffffffffffffffffffffffffffffffff1916827bffffffffffffffffffffffffffffffffffffffffffffffffffffffff19161480611bd757507f5b5e139f000000000000000000000000000000000000000000000000000000007bffffffffffffffffffffffffffffffffffffffffffffffffffffffff1916827bffffffffffffffffffffffffffffffffffffffffffffffffffffffff1916145b80611be75750611be68261259c565b5b9050919050565b611bf6611cb7565b73ffffffffffffffffffffffffffffffffffffffff16611c146112ab565b73ffffffffffffffffffffffffffffffffffffffff1614611c6a576040517f08c379a0000000000000000000000000000000000000000000000000000000008152600401611c6190613f19565b60405180910390fd5b565b611c75816123f1565b611cb4576040517f08c379a0000000000000000000000000000000000000000000000000000000008152600401611cab90613f79565b60405180910390fd5b50565b600033905090565b816004600083815260200190815260200160002060006101000a81548173ffffffffffffffffffffffffffffffffffffffff021916908373ffffffffffffffffffffffffffffffffffffffff160217905550808273ffffffffffffffffffffffffffffffffffffffff16611d32836110b2565b73ffffffffffffffffffffffffffffffffffffffff167f8c5be1e5ebec7d5bd14f71427d1e84f3dd0314c0f7b2291e5b200ac8c7c3b92560405160405180910390a45050565b600080611d84836110b2565b90508073ffffffffffffffffffffffffffffffffffffffff168473ffffffffffffffffffffffffffffffffffffffff161480611dc65750611dc581856119c8565b5b80611e0457508373ffffffffffffffffffffffffffffffffffffffff16611dec84610b2f565b73ffffffffffffffffffffffffffffffffffffffff16145b91505092915050565b8273ffffffffffffffffffffffffffffffffffffffff16611e2d826110b2565b73ffffffffffffffffffffffffffffffffffffffff1614611e83576040517f08c379a0000000000000000000000000000000000000000000000000000000008152600401611e7a90613df9565b60405180910390fd5b600073ffffffffffffffffffffffffffffffffffffffff168273ffffffffffffffffffffffffffffffffffffffff161415611ef3576040517f08c379a0000000000000000000000000000000000000000000000000000000008152600401611eea90613e59565b60405180910390fd5b611f008383836001612606565b8273ffffffffffffffffffffffffffffffffffffffff16611f20826110b2565b73ffffffffffffffffffffffffffffffffffffffff1614611f76576040517f08c379a0000000000000000000000000000000000000000000000000000000008152600401611f6d90613df9565b60405180910390fd5b6004600082815260200190815260200160002060006101000a81549073ffffffffffffffffffffffffffffffffffffffff02191690556001600360008573ffffffffffffffffffffffffffffffffffffffff1673ffffffffffffffffffffffffffffffffffffffff168152602001908152602001600020600082825403925050819055506001600360008473ffffffffffffffffffffffffffffffffffffffff1673ffffffffffffffffffffffffffffffffffffffff16815260200190815260200160002060008282540192505081905550816002600083815260200190815260200160002060006101000a81548173ffffffffffffffffffffffffffffffffffffffff021916908373ffffffffffffffffffffffffffffffffffffffff160217905550808273ffffffffffffffffffffffffffffffffffffffff168473ffffffffffffffffffffffffffffffffffffffff167fddf252ad1be2c89b69c2b068fc378daa952ba7f163c4a11628f55a4df523b3ef60405160405180910390a46121028383836001612766565b505050565b60006002600083815260200190815260200160002060009054906101000a900473ffffffffffffffffffffffffffffffffffffffff169050919050565b6000600a60009054906101000a900473ffffffffffffffffffffffffffffffffffffffff16905081600a60006101000a81548173ffffffffffffffffffffffffffffffffffffffff021916908373ffffffffffffffffffffffffffffffffffffffff1602179055508173ffffffffffffffffffffffffffffffffffffffff168173ffffffffffffffffffffffffffffffffffffffff167f8be0079c531659141344cd1fd0a4f28419497f9722a3daafe3b4186f6b6457e060405160405180910390a35050565b61222482826040518060200160405280600081525061276c565b5050565b8173ffffffffffffffffffffffffffffffffffffffff168373ffffffffffffffffffffffffffffffffffffffff161415612297576040517f08c379a000000000000000000000000000000000000000000000000000000000815260040161228e90613e79565b60405180910390fd5b80600560008573ffffffffffffffffffffffffffffffffffffffff1673ffffffffffffffffffffffffffffffffffffffff16815260200190815260200160002060008473ffffffffffffffffffffffffffffffffffffffff1673ffffffffffffffffffffffffffffffffffffffff16815260200190815260200160002060006101000a81548160ff0219169083151502179055508173ffffffffffffffffffffffffffffffffffffffff168373ffffffffffffffffffffffffffffffffffffffff167f17307eab39ab6107e8899845ad3d59bd9653f200f220920489ca2b5937696c31836040516123889190613d3c565b60405180910390a3505050565b6123a0848484611e0d565b6123ac848484846127c7565b6123eb576040517f08c379a00000000000000000000000000000000000000000000000000000000081526004016123e290613db9565b60405180910390fd5b50505050565b60008073ffffffffffffffffffffffffffffffffffffffff1661241383612107565b73ffffffffffffffffffffffffffffffffffffffff1614159050919050565b6060600b805461244190614382565b80601f016020809104026020016040519081016040528092919081815260200182805461246d90614382565b80156124ba5780601f1061248f576101008083540402835291602001916124ba565b820191906000526020600020905b81548152906001019060200180831161249d57829003601f168201915b5050505050905090565b6060600060016124d38461295e565b01905060008167ffffffffffffffff8111156124f2576124f1614519565b5b6040519080825280601f01601f1916602001820160405280156125245781602001600182028036833780820191505090505b509050600082602001820190505b600115612591578080600190039150507f3031323334353637383961626364656600000000000000000000000000000000600a86061a8153600a858161257b5761257a61445d565b5b049450600085141561258c57612591565b612532565b819350505050919050565b60007f01ffc9a7000000000000000000000000000000000000000000000000000000007bffffffffffffffffffffffffffffffffffffffffffffffffffffffff1916827bffffffffffffffffffffffffffffffffffffffffffffffffffffffff1916149050919050565b61261284848484612ab1565b6001811115612656576040517f08c379a000000000000000000000000000000000000000000000000000000000815260040161264d90614019565b60405180910390fd5b6000829050600073ffffffffffffffffffffffffffffffffffffffff168573ffffffffffffffffffffffffffffffffffffffff16141561269e5761269981612bd7565b6126dd565b8373ffffffffffffffffffffffffffffffffffffffff168573ffffffffffffffffffffffffffffffffffffffff16146126dc576126db8582612c20565b5b5b600073ffffffffffffffffffffffffffffffffffffffff168473ffffffffffffffffffffffffffffffffffffffff1614156127205761271b81612d8d565b61275f565b8473ffffffffffffffffffffffffffffffffffffffff168473ffffffffffffffffffffffffffffffffffffffff161461275e5761275d8482612e5e565b5b5b5050505050565b50505050565b6127768383612edd565b61278360008484846127c7565b6127c2576040517f08c379a00000000000000000000000000000000000000000000000000000000081526004016127b990613db9565b60405180910390fd5b505050565b60006127e88473ffffffffffffffffffffffffffffffffffffffff166130fb565b15612951578373ffffffffffffffffffffffffffffffffffffffff1663150b7a02612811611cb7565b8786866040518563ffffffff1660e01b81526004016128339493929190613cce565b602060405180830381600087803b15801561284d57600080fd5b505af192505050801561287e57506040513d601f19601f8201168201806040525081019061287b919061368b565b60015b612901573d80600081146128ae576040519150601f19603f3d011682016040523d82523d6000602084013e6128b3565b606091505b506000815114156128f9576040517f08c379a00000000000000000000000000000000000000000000000000000000081526004016128f090613db9565b60405180910390fd5b805181602001fd5b63150b7a0260e01b7bffffffffffffffffffffffffffffffffffffffffffffffffffffffff1916817bffffffffffffffffffffffffffffffffffffffffffffffffffffffff191614915050612956565b600190505b949350505050565b600080600090507a184f03e93ff9f4daa797ed6e38ed64bf6a1f01000000000000000083106129bc577a184f03e93ff9f4daa797ed6e38ed64bf6a1f01000000000000000083816129b2576129b161445d565b5b0492506040810190505b6d04ee2d6d415b85acef810000000083106129f9576d04ee2d6d415b85acef810000000083816129ef576129ee61445d565b5b0492506020810190505b662386f26fc100008310612a2857662386f26fc100008381612a1e57612a1d61445d565b5b0492506010810190505b6305f5e1008310612a51576305f5e1008381612a4757612a4661445d565b5b0492506008810190505b6127108310612a76576127108381612a6c57612a6b61445d565b5b0492506004810190505b60648310612a995760648381612a8f57612a8e61445d565b5b0492506002810190505b600a8310612aa8576001810190505b80915050919050565b6001811115612bd157600073ffffffffffffffffffffffffffffffffffffffff168473ffffffffffffffffffffffffffffffffffffffff1614612b455780600360008673ffffffffffffffffffffffffffffffffffffffff1673ffffffffffffffffffffffffffffffffffffffff1681526020019081526020016000206000828254612b3d9190614298565b925050819055505b600073ffffffffffffffffffffffffffffffffffffffff168373ffffffffffffffffffffffffffffffffffffffff1614612bd05780600360008573ffffffffffffffffffffffffffffffffffffffff1673ffffffffffffffffffffffffffffffffffffffff1681526020019081526020016000206000828254612bc891906141b7565b925050819055505b5b50505050565b6008805490506009600083815260200190815260200160002081905550600881908060018154018082558091505060019003906000526020600020016000909190919091505550565b60006001612c2d846111c7565b612c379190614298565b9050600060076000848152602001908152602001600020549050818114612d1c576000600660008673ffffffffffffffffffffffffffffffffffffffff1673ffffffffffffffffffffffffffffffffffffffff168152602001908152602001600020600084815260200190815260200160002054905080600660008773ffffffffffffffffffffffffffffffffffffffff1673ffffffffffffffffffffffffffffffffffffffff168152602001908152602001600020600084815260200190815260200160002081905550816007600083815260200190815260200160002081905550505b6007600084815260200190815260200160002060009055600660008573ffffffffffffffffffffffffffffffffffffffff1673ffffffffffffffffffffffffffffffffffffffff16815260200190815260200160002060008381526020019081526020016000206000905550505050565b60006001600880549050612da19190614298565b9050600060096000848152602001908152602001600020549050600060088381548110612dd157612dd06144ea565b5b906000526020600020015490508060088381548110612df357612df26144ea565b5b906000526020600020018190555081600960008381526020019081526020016000208190555060096000858152602001908152602001600020600090556008805480612e4257612e416144bb565b5b6001900381819060005260206000200160009055905550505050565b6000612e69836111c7565b905081600660008573ffffffffffffffffffffffffffffffffffffffff1673ffffffffffffffffffffffffffffffffffffffff168152602001908152602001600020600083815260200190815260200160002081905550806007600084815260200190815260200160002081905550505050565b600073ffffffffffffffffffffffffffffffffffffffff168273ffffffffffffffffffffffffffffffffffffffff161415612f4d576040517f08c379a0000000000000000000000000000000000000000000000000000000008152600401612f4490613ef9565b60405180910390fd5b612f56816123f1565b15612f96576040517f08c379a0000000000000000000000000000000000000000000000000000000008152600401612f8d90613e19565b60405180910390fd5b612fa4600083836001612606565b612fad816123f1565b15612fed576040517f08c379a0000000000000000000000000000000000000000000000000000000008152600401612fe490613e19565b60405180910390fd5b6001600360008473ffffffffffffffffffffffffffffffffffffffff1673ffffffffffffffffffffffffffffffffffffffff16815260200190815260200160002060008282540192505081905550816002600083815260200190815260200160002060006101000a81548173ffffffffffffffffffffffffffffffffffffffff021916908373ffffffffffffffffffffffffffffffffffffffff160217905550808273ffffffffffffffffffffffffffffffffffffffff16600073ffffffffffffffffffffffffffffffffffffffff167fddf252ad1be2c89b69c2b068fc378daa952ba7f163c4a11628f55a4df523b3ef60405160405180910390a46130f7600083836001612766565b5050565b6000808273ffffffffffffffffffffffffffffffffffffffff163b119050919050565b82805461312a90614382565b90600052602060002090601f01602090048101928261314c5760008555613193565b82601f1061316557805160ff1916838001178555613193565b82800160010185558215613193579182015b82811115613192578251825591602001919060010190613177565b5b5090506131a09190613265565b5090565b50805460008255906000526020600020908101906131c29190613265565b50565b828054828255906000526020600020908101928215613254579160200282015b8281111561325357823573ffffffffffffffffffffffffffffffffffffffff168260006101000a81548173ffffffffffffffffffffffffffffffffffffffff021916908373ffffffffffffffffffffffffffffffffffffffff160217905550916020019190600101906131e5565b5b5090506132619190613265565b5090565b5b8082111561327e576000816000905550600101613266565b5090565b6000613295613290846140b9565b614094565b9050828152602081018484840111156132b1576132b0614557565b5b6132bc848285614340565b509392505050565b60006132d76132d2846140ea565b614094565b9050828152602081018484840111156132f3576132f2614557565b5b6132fe848285614340565b509392505050565b60008135905061331581614b40565b92915050565b60008083601f8401126133315761333061454d565b5b8235905067ffffffffffffffff81111561334e5761334d614548565b5b60208301915083602082028301111561336a57613369614552565b5b9250929050565b60008135905061338081614b57565b92915050565b60008135905061339581614b6e565b92915050565b6000815190506133aa81614b6e565b92915050565b600082601f8301126133c5576133c461454d565b5b81356133d5848260208601613282565b91505092915050565b600082601f8301126133f3576133f261454d565b5b81356134038482602086016132c4565b91505092915050565b60008135905061341b81614b85565b92915050565b60006020828403121561343757613436614561565b5b600061344584828501613306565b91505092915050565b6000806040838503121561346557613464614561565b5b600061347385828601613306565b925050602061348485828601613306565b9150509250929050565b6000806000606084860312156134a7576134a6614561565b5b60006134b586828701613306565b93505060206134c686828701613306565b92505060406134d78682870161340c565b9150509250925092565b600080600080608085870312156134fb576134fa614561565b5b600061350987828801613306565b945050602061351a87828801613306565b935050604061352b8782880161340c565b925050606085013567ffffffffffffffff81111561354c5761354b61455c565b5b613558878288016133b0565b91505092959194509250565b6000806040838503121561357b5761357a614561565b5b600061358985828601613306565b925050602061359a85828601613371565b9150509250929050565b600080604083850312156135bb576135ba614561565b5b60006135c985828601613306565b92505060206135da8582860161340c565b9150509250929050565b600080602083850312156135fb576135fa614561565b5b600083013567ffffffffffffffff8111156136195761361861455c565b5b6136258582860161331b565b92509250509250929050565b60006020828403121561364757613646614561565b5b600061365584828501613371565b91505092915050565b60006020828403121561367457613673614561565b5b600061368284828501613386565b91505092915050565b6000602082840312156136a1576136a0614561565b5b60006136af8482850161339b565b91505092915050565b6000602082840312156136ce576136cd614561565b5b600082013567ffffffffffffffff8111156136ec576136eb61455c565b5b6136f8848285016133de565b91505092915050565b60006020828403121561371757613716614561565b5b60006137258482850161340c565b91505092915050565b600061373a8383613c4f565b60208301905092915050565b61374f816142cc565b82525050565b600061376082614140565b61376a818561416e565b93506137758361411b565b8060005b838110156137a657815161378d888261372e565b975061379883614161565b925050600181019050613779565b5085935050505092915050565b6137bc816142de565b82525050565b60006137cd8261414b565b6137d7818561417f565b93506137e781856020860161434f565b6137f081614566565b840191505092915050565b600061380682614156565b613810818561419b565b935061382081856020860161434f565b61382981614566565b840191505092915050565b600061383f82614156565b61384981856141ac565b935061385981856020860161434f565b80840191505092915050565b6000815461387281614382565b61387c81866141ac565b9450600182166000811461389757600181146138a8576138db565b60ff198316865281860193506138db565b6138b18561412b565b60005b838110156138d3578154818901526001820191506020810190506138b4565b838801955050505b50505092915050565b60006138f1602d8361419b565b91506138fc82614577565b604082019050919050565b6000613914602b8361419b565b915061391f826145c6565b604082019050919050565b600061393760328361419b565b915061394282614615565b604082019050919050565b600061395a60268361419b565b915061396582614664565b604082019050919050565b600061397d60258361419b565b9150613988826146b3565b604082019050919050565b60006139a0601c8361419b565b91506139ab82614702565b602082019050919050565b60006139c3601c8361419b565b91506139ce8261472b565b602082019050919050565b60006139e660248361419b565b91506139f182614754565b604082019050919050565b6000613a0960198361419b565b9150613a14826147a3565b602082019050919050565b6000613a2c60298361419b565b9150613a37826147cc565b604082019050919050565b6000613a4f60168361419b565b9150613a5a8261481b565b602082019050919050565b6000613a7260248361419b565b9150613a7d82614844565b604082019050919050565b6000613a9560208361419b565b9150613aa082614893565b602082019050919050565b6000613ab860208361419b565b9150613ac3826148bc565b602082019050919050565b6000613adb60168361419b565b9150613ae6826148e5565b602082019050919050565b6000613afe602f8361419b565b9150613b098261490e565b604082019050919050565b6000613b2160188361419b565b9150613b2c8261495d565b602082019050919050565b6000613b4460218361419b565b9150613b4f82614986565b604082019050919050565b6000613b67600083614190565b9150613b72826149d5565b600082019050919050565b6000613b8a60128361419b565b9150613b95826149d8565b602082019050919050565b6000613bad603d8361419b565b9150613bb882614a01565b604082019050919050565b6000613bd0602c8361419b565b9150613bdb82614a50565b604082019050919050565b6000613bf360358361419b565b9150613bfe82614a9f565b604082019050919050565b6000613c1660178361419b565b9150613c2182614aee565b602082019050919050565b6000613c39601b8361419b565b9150613c4482614b17565b602082019050919050565b613c5881614336565b82525050565b613c6781614336565b82525050565b6000613c798286613834565b9150613c858285613834565b9150613c918284613865565b9150819050949350505050565b6000613ca982613b5a565b9150819050919050565b6000602082019050613cc86000830184613746565b92915050565b6000608082019050613ce36000830187613746565b613cf06020830186613746565b613cfd6040830185613c5e565b8181036060830152613d0f81846137c2565b905095945050505050565b60006020820190508181036000830152613d348184613755565b905092915050565b6000602082019050613d5160008301846137b3565b92915050565b60006020820190508181036000830152613d7181846137fb565b905092915050565b60006020820190508181036000830152613d92816138e4565b9050919050565b60006020820190508181036000830152613db281613907565b9050919050565b60006020820190508181036000830152613dd28161392a565b9050919050565b60006020820190508181036000830152613df28161394d565b9050919050565b60006020820190508181036000830152613e1281613970565b9050919050565b60006020820190508181036000830152613e3281613993565b9050919050565b60006020820190508181036000830152613e52816139b6565b9050919050565b60006020820190508181036000830152613e72816139d9565b9050919050565b60006020820190508181036000830152613e92816139fc565b9050919050565b60006020820190508181036000830152613eb281613a1f565b9050919050565b60006020820190508181036000830152613ed281613a42565b9050919050565b60006020820190508181036000830152613ef281613a65565b9050919050565b60006020820190508181036000830152613f1281613a88565b9050919050565b60006020820190508181036000830152613f3281613aab565b9050919050565b60006020820190508181036000830152613f5281613ace565b9050919050565b60006020820190508181036000830152613f7281613af1565b9050919050565b60006020820190508181036000830152613f9281613b14565b9050919050565b60006020820190508181036000830152613fb281613b37565b9050919050565b60006020820190508181036000830152613fd281613b7d565b9050919050565b60006020820190508181036000830152613ff281613ba0565b9050919050565b6000602082019050818103600083015261401281613bc3565b9050919050565b6000602082019050818103600083015261403281613be6565b9050919050565b6000602082019050818103600083015261405281613c09565b9050919050565b6000602082019050818103600083015261407281613c2c565b9050919050565b600060208201905061408e6000830184613c5e565b92915050565b600061409e6140af565b90506140aa82826143b4565b919050565b6000604051905090565b600067ffffffffffffffff8211156140d4576140d3614519565b5b6140dd82614566565b9050602081019050919050565b600067ffffffffffffffff82111561410557614104614519565b5b61410e82614566565b9050602081019050919050565b6000819050602082019050919050565b60008190508160005260206000209050919050565b600081519050919050565b600081519050919050565b600081519050919050565b6000602082019050919050565b600082825260208201905092915050565b600082825260208201905092915050565b600081905092915050565b600082825260208201905092915050565b600081905092915050565b60006141c282614336565b91506141cd83614336565b9250827fffffffffffffffffffffffffffffffffffffffffffffffffffffffffffffffff038211156142025761420161442e565b5b828201905092915050565b600061421882614336565b915061422383614336565b9250826142335761423261445d565b5b828204905092915050565b600061424982614336565b915061425483614336565b9250817fffffffffffffffffffffffffffffffffffffffffffffffffffffffffffffffff048311821515161561428d5761428c61442e565b5b828202905092915050565b60006142a382614336565b91506142ae83614336565b9250828210156142c1576142c061442e565b5b828203905092915050565b60006142d782614316565b9050919050565b60008115159050919050565b60007fffffffff0000000000000000000000000000000000000000000000000000000082169050919050565b600073ffffffffffffffffffffffffffffffffffffffff82169050919050565b6000819050919050565b82818337600083830152505050565b60005b8381101561436d578082015181840152602081019050614352565b8381111561437c576000848401525b50505050565b6000600282049050600182168061439a57607f821691505b602082108114156143ae576143ad61448c565b5b50919050565b6143bd82614566565b810181811067ffffffffffffffff821117156143dc576143db614519565b5b80604052505050565b60006143f082614336565b91507fffffffffffffffffffffffffffffffffffffffffffffffffffffffffffffffff8214156144235761442261442e565b5b600182019050919050565b7f4e487b7100000000000000000000000000000000000000000000000000000000600052601160045260246000fd5b7f4e487b7100000000000000000000000000000000000000000000000000000000600052601260045260246000fd5b7f4e487b7100000000000000000000000000000000000000000000000000000000600052602260045260246000fd5b7f4e487b7100000000000000000000000000000000000000000000000000000000600052603160045260246000fd5b7f4e487b7100000000000000000000000000000000000000000000000000000000600052603260045260246000fd5b7f4e487b7100000000000000000000000000000000000000000000000000000000600052604160045260246000fd5b600080fd5b600080fd5b600080fd5b600080fd5b600080fd5b600080fd5b6000601f19601f8301169050919050565b7f4552433732313a2063616c6c6572206973206e6f7420746f6b656e206f776e6560008201527f72206f7220617070726f76656400000000000000000000000000000000000000602082015250565b7f455243373231456e756d657261626c653a206f776e657220696e646578206f7560008201527f74206f6620626f756e6473000000000000000000000000000000000000000000602082015250565b7f4552433732313a207472616e7366657220746f206e6f6e20455243373231526560008201527f63656976657220696d706c656d656e7465720000000000000000000000000000602082015250565b7f4f776e61626c653a206e6577206f776e657220697320746865207a65726f206160008201527f6464726573730000000000000000000000000000000000000000000000000000602082015250565b7f4552433732313a207472616e736665722066726f6d20696e636f72726563742060008201527f6f776e6572000000000000000000000000000000000000000000000000000000602082015250565b7f4552433732313a20746f6b656e20616c7265616479206d696e74656400000000600082015250565b7f6d6178204e465420706572206164647265737320657863656564656400000000600082015250565b7f4552433732313a207472616e7366657220746f20746865207a65726f2061646460008201527f7265737300000000000000000000000000000000000000000000000000000000602082015250565b7f4552433732313a20617070726f766520746f2063616c6c657200000000000000600082015250565b7f4552433732313a2061646472657373207a65726f206973206e6f74206120766160008201527f6c6964206f776e65720000000000000000000000000000000000000000000000602082015250565b7f6d6178204e4654206c696d697420657863656564656400000000000000000000600082015250565b7f6d6178206d696e7420616d6f756e74207065722073657373696f6e206578636560008201527f6564656400000000000000000000000000000000000000000000000000000000602082015250565b7f4552433732313a206d696e7420746f20746865207a65726f2061646472657373600082015250565b7f4f776e61626c653a2063616c6c6572206973206e6f7420746865206f776e6572600082015250565b7f74686520636f6e74726163742069732070617573656400000000000000000000600082015250565b7f4552433732314d657461646174613a2055524920717565727920666f72206e6f60008201527f6e6578697374656e7420746f6b656e0000000000000000000000000000000000602082015250565b7f4552433732313a20696e76616c696420746f6b656e2049440000000000000000600082015250565b7f4552433732313a20617070726f76616c20746f2063757272656e74206f776e6560008201527f7200000000000000000000000000000000000000000000000000000000000000602082015250565b50565b7f696e73756666696369656e742066756e64730000000000000000000000000000600082015250565b7f4552433732313a20617070726f76652063616c6c6572206973206e6f7420746f60008201527f6b656e206f776e6572206f7220617070726f76656420666f7220616c6c000000602082015250565b7f455243373231456e756d657261626c653a20676c6f62616c20696e646578206f60008201527f7574206f6620626f756e64730000000000000000000000000000000000000000602082015250565b7f455243373231456e756d657261626c653a20636f6e736563757469766520747260008201527f616e7366657273206e6f7420737570706f727465640000000000000000000000602082015250565b7f75736572206973206e6f742077686974656c6973746564000000000000000000600082015250565b7f6e65656420746f206d696e74206174206c656173742031204e46540000000000600082015250565b614b49816142cc565b8114614b5457600080fd5b50565b614b60816142de565b8114614b6b57600080fd5b50565b614b77816142ea565b8114614b8257600080fd5b50565b614b8e81614336565b8114614b9957600080fd5b5056fea2646970667358221220807df70b284c9097480ff0493fb915cbe502ec5d7b0bfdb489c4cf0d5074bde664736f6c63430008070033",
  "devdoc": {
    "kind": "dev",
    "methods": {
      "approve(address,uint256)": {
        "details": "See {IERC721-approve}."
      },
      "balanceOf(address)": {
        "details": "See {IERC721-balanceOf}."
      },
      "getApproved(uint256)": {
        "details": "See {IERC721-getApproved}."
      },
      "isApprovedForAll(address,address)": {
        "details": "See {IERC721-isApprovedForAll}."
      },
      "name()": {
        "details": "See {IERC721Metadata-name}."
      },
      "owner()": {
        "details": "Returns the address of the current owner."
      },
      "ownerOf(uint256)": {
        "details": "See {IERC721-ownerOf}."
      },
      "renounceOwnership()": {
        "details": "Leaves the contract without owner. It will not be possible to call `onlyOwner` functions anymore. Can only be called by the current owner. NOTE: Renouncing ownership will leave the contract without an owner, thereby removing any functionality that is only available to the owner."
      },
      "safeTransferFrom(address,address,uint256)": {
        "details": "See {IERC721-safeTransferFrom}."
      },
      "safeTransferFrom(address,address,uint256,bytes)": {
        "details": "See {IERC721-safeTransferFrom}."
      },
      "setApprovalForAll(address,bool)": {
        "details": "See {IERC721-setApprovalForAll}."
      },
      "supportsInterface(bytes4)": {
        "details": "See {IERC165-supportsInterface}."
      },
      "symbol()": {
        "details": "See {IERC721Metadata-symbol}."
      },
      "tokenByIndex(uint256)": {
        "details": "See {IERC721Enumerable-tokenByIndex}."
      },
      "tokenOfOwnerByIndex(address,uint256)": {
        "details": "See {IERC721Enumerable-tokenOfOwnerByIndex}."
      },
      "tokenURI(uint256)": {
        "details": "See {IERC721Metadata-tokenURI}."
      },
      "totalSupply()": {
        "details": "See {IERC721Enumerable-totalSupply}."
      },
      "transferFrom(address,address,uint256)": {
        "details": "See {IERC721-transferFrom}."
      },
      "transferOwnership(address)": {
        "details": "Transfers ownership of the contract to a new account (`newOwner`). Can only be called by the current owner."
      }
    },
    "version": 1
  },
  "userdoc": {
    "kind": "user",
    "methods": {},
    "version": 1
  },
  "storageLayout": {
    "storage": [
      {
        "astId": 138,
        "contract": "contracts/Web3BoyNFT.sol:web3BoyNft",
        "label": "_name",
        "offset": 0,
        "slot": "0",
        "type": "t_string_storage"
      },
      {
        "astId": 140,
        "contract": "contracts/Web3BoyNFT.sol:web3BoyNft",
        "label": "_symbol",
        "offset": 0,
        "slot": "1",
        "type": "t_string_storage"
      },
      {
        "astId": 144,
        "contract": "contracts/Web3BoyNFT.sol:web3BoyNft",
        "label": "_owners",
        "offset": 0,
        "slot": "2",
        "type": "t_mapping(t_uint256,t_address)"
      },
      {
        "astId": 148,
        "contract": "contracts/Web3BoyNFT.sol:web3BoyNft",
        "label": "_balances",
        "offset": 0,
        "slot": "3",
        "type": "t_mapping(t_address,t_uint256)"
      },
      {
        "astId": 152,
        "contract": "contracts/Web3BoyNFT.sol:web3BoyNft",
        "label": "_tokenApprovals",
        "offset": 0,
        "slot": "4",
        "type": "t_mapping(t_uint256,t_address)"
      },
      {
        "astId": 158,
        "contract": "contracts/Web3BoyNFT.sol:web3BoyNft",
        "label": "_operatorApprovals",
        "offset": 0,
        "slot": "5",
        "type": "t_mapping(t_address,t_mapping(t_address,t_bool))"
      },
      {
        "astId": 1206,
        "contract": "contracts/Web3BoyNFT.sol:web3BoyNft",
        "label": "_ownedTokens",
        "offset": 0,
        "slot": "6",
        "type": "t_mapping(t_address,t_mapping(t_uint256,t_uint256))"
      },
      {
        "astId": 1210,
        "contract": "contracts/Web3BoyNFT.sol:web3BoyNft",
        "label": "_ownedTokensIndex",
        "offset": 0,
        "slot": "7",
        "type": "t_mapping(t_uint256,t_uint256)"
      },
      {
        "astId": 1213,
        "contract": "contracts/Web3BoyNFT.sol:web3BoyNft",
        "label": "_allTokens",
        "offset": 0,
        "slot": "8",
        "type": "t_array(t_uint256)dyn_storage"
      },
      {
        "astId": 1217,
        "contract": "contracts/Web3BoyNFT.sol:web3BoyNft",
        "label": "_allTokensIndex",
        "offset": 0,
        "slot": "9",
        "type": "t_mapping(t_uint256,t_uint256)"
      },
      {
        "astId": 7,
        "contract": "contracts/Web3BoyNFT.sol:web3BoyNft",
        "label": "_owner",
        "offset": 0,
        "slot": "10",
        "type": "t_address"
      },
      {
        "astId": 3044,
        "contract": "contracts/Web3BoyNFT.sol:web3BoyNft",
        "label": "baseURI",
        "offset": 0,
        "slot": "11",
        "type": "t_string_storage"
      },
      {
        "astId": 3047,
        "contract": "contracts/Web3BoyNFT.sol:web3BoyNft",
        "label": "baseExtension",
        "offset": 0,
        "slot": "12",
        "type": "t_string_storage"
      },
      {
        "astId": 3050,
        "contract": "contracts/Web3BoyNFT.sol:web3BoyNft",
        "label": "INITIAL_PRICE",
        "offset": 0,
        "slot": "13",
        "type": "t_uint256"
      },
      {
        "astId": 3053,
        "contract": "contracts/Web3BoyNFT.sol:web3BoyNft",
        "label": "maxSupply",
        "offset": 0,
        "slot": "14",
        "type": "t_uint256"
      },
      {
        "astId": 3056,
        "contract": "contracts/Web3BoyNFT.sol:web3BoyNft",
        "label": "maxMintAmount",
        "offset": 0,
        "slot": "15",
        "type": "t_uint256"
      },
      {
        "astId": 3059,
        "contract": "contracts/Web3BoyNFT.sol:web3BoyNft",
        "label": "nftPerAddressLimit",
        "offset": 0,
        "slot": "16",
        "type": "t_uint256"
      },
      {
        "astId": 3062,
        "contract": "contracts/Web3BoyNFT.sol:web3BoyNft",
        "label": "paused",
        "offset": 0,
        "slot": "17",
        "type": "t_bool"
      },
      {
        "astId": 3065,
        "contract": "contracts/Web3BoyNFT.sol:web3BoyNft",
        "label": "revealed",
        "offset": 1,
        "slot": "17",
        "type": "t_bool"
      },
      {
        "astId": 3068,
        "contract": "contracts/Web3BoyNFT.sol:web3BoyNft",
        "label": "onlyWhitelisted",
        "offset": 2,
        "slot": "17",
        "type": "t_bool"
      },
      {
        "astId": 3074,
        "contract": "contracts/Web3BoyNFT.sol:web3BoyNft",
        "label": "commissions",
        "offset": 3,
        "slot": "17",
        "type": "t_address_payable"
      },
      {
        "astId": 3077,
        "contract": "contracts/Web3BoyNFT.sol:web3BoyNft",
        "label": "whitelistedAddresses",
        "offset": 0,
        "slot": "18",
        "type": "t_array(t_address)dyn_storage"
      },
      {
        "astId": 3081,
        "contract": "contracts/Web3BoyNFT.sol:web3BoyNft",
        "label": "addressMintedBalance",
        "offset": 0,
        "slot": "19",
        "type": "t_mapping(t_address,t_uint256)"
      }
    ],
    "types": {
      "t_address": {
        "encoding": "inplace",
        "label": "address",
        "numberOfBytes": "20"
      },
      "t_address_payable": {
        "encoding": "inplace",
        "label": "address payable",
        "numberOfBytes": "20"
      },
      "t_array(t_address)dyn_storage": {
        "base": "t_address",
        "encoding": "dynamic_array",
        "label": "address[]",
        "numberOfBytes": "32"
      },
      "t_array(t_uint256)dyn_storage": {
        "base": "t_uint256",
        "encoding": "dynamic_array",
        "label": "uint256[]",
        "numberOfBytes": "32"
      },
      "t_bool": {
        "encoding": "inplace",
        "label": "bool",
        "numberOfBytes": "1"
      },
      "t_mapping(t_address,t_bool)": {
        "encoding": "mapping",
        "key": "t_address",
        "label": "mapping(address => bool)",
        "numberOfBytes": "32",
        "value": "t_bool"
      },
      "t_mapping(t_address,t_mapping(t_address,t_bool))": {
        "encoding": "mapping",
        "key": "t_address",
        "label": "mapping(address => mapping(address => bool))",
        "numberOfBytes": "32",
        "value": "t_mapping(t_address,t_bool)"
      },
      "t_mapping(t_address,t_mapping(t_uint256,t_uint256))": {
        "encoding": "mapping",
        "key": "t_address",
        "label": "mapping(address => mapping(uint256 => uint256))",
        "numberOfBytes": "32",
        "value": "t_mapping(t_uint256,t_uint256)"
      },
      "t_mapping(t_address,t_uint256)": {
        "encoding": "mapping",
        "key": "t_address",
        "label": "mapping(address => uint256)",
        "numberOfBytes": "32",
        "value": "t_uint256"
      },
      "t_mapping(t_uint256,t_address)": {
        "encoding": "mapping",
        "key": "t_uint256",
        "label": "mapping(uint256 => address)",
        "numberOfBytes": "32",
        "value": "t_address"
      },
      "t_mapping(t_uint256,t_uint256)": {
        "encoding": "mapping",
        "key": "t_uint256",
        "label": "mapping(uint256 => uint256)",
        "numberOfBytes": "32",
        "value": "t_uint256"
      },
      "t_string_storage": {
        "encoding": "bytes",
        "label": "string",
        "numberOfBytes": "32"
      },
      "t_uint256": {
        "encoding": "inplace",
        "label": "uint256",
        "numberOfBytes": "32"
      }
    }
  }
}